:020000040800F2
:10000000D0270020350A0108550C0108570C0108BB
:100010005B0C01085F0C0108630C01080000000084
:10002000000000000000000000000000670C010854
:10003000690C0108000000006B0C01086D0C010840
:100040004F0A01084F0A01084F0A010823DE000881
:100050004F0A01084F0A01084F0A01084F0A010818
:100060004F0A01084F0A01084F0A01084F0A010808
:100070004F0A01084F0A01084F0A01084F0A0108F8
:100080004F0A01084F0A01084F0A01084F0A0108E8
:100090004F0A01084F0A01084F0A01084F0A0108D8
:1000A0004F0A01084F0A01084F0A01084F0A0108C8
:1000B0004F0A0108D5C700084F0A01084F0A010876
:1000C0004F0A01084F0A01084F0A01084F0A0108A8
:1000D0004F0A010849CD00084F0A01084F0A0108DC
:1000E0004F0A01084F0A01084F0A010800F002F800
:1000F00000F05EF80AA090E8000C82448344AAF164
:100100000107DA4501D100F053F8AFF2090EBAE861
:100110000F0013F0010F18BFFB1A43F0010318473B
:10012000104801003048010010F8013B0A4413F068
:10013000030408BF10F8014B1D1108BF10F8015B44
:10014000641E05D010F8016B641E01F8016BF9D133
:10015000002D15D010F8014B03F00C030C2BA1EB74
:1001600004040ABF10F8013BA4EB8314A4EB03249E
:1001700005F1010314F8016B5B1E01F8016BF9D561
:10018000914238BF10F8013BD1D3704700230024BF
:1001900000250026103A28BF78C1FBD8520728BF97
:1001A00030C148BF0B6070471FB51FBD10B510BDF3
:1001B00010F0D4FD1146FFF7F7FF0CF0F2F910F044
:1001C000F2FD03B4FFF7F2FF03BC10F0F7FD0000EF
:1001D000002000BF04E02021FC4A1154411CC8B299
:1001E0007928F8DB704730B5C0EB001301EB43030F
:1001F000F74C23800AE012F8013BF44CF44D2D88B3
:100200006355F34B1B885B1CF14C23801378002B48
:10021000F1D130BDEF4800780C2816D10520EE4909
:100220000870EE4908700020ED498870C870ED49EB
:10023000C8700120EC4908700020EC4908700120CA
:10024000EB490870EB4908704CE0E24800780B2855
:100250002BD10020E0490870E0490870E04988701F
:10026000C870E049C8700120DF490870E049087093
:10027000E0490870E048007810B10120DF490870BB
:100280000020DD490870DE490870DE48007820F063
:100290000200DC490870DC48007820F04000DA49B0
:1002A00008700020D94908701CE0CA480078C8B11D
:1002B000D7480078B0B9D748007898B9D6480078C0
:1002C00080B9D648007868B90120D4490870D2496D
:1002D0000870D0490870CE490870C54908700320DD
:1002E000C44908700020BB4908707047B9480078BD
:1002F0000C2805D10020B8490870B849087008E0FA
:10030000B44800780E2804D0B2480078032800D002
:1003100000BF7047AF4800780C2805D10020AE49D7
:100320000870AE49087008E0AA4800780E2804D08A
:10033000A8480078032800D000BF7047A54800787F
:100340000C2811D10020A4490870A4490870A449C0
:100350008870C870A349C8700120A3490870A449D7
:100360000870A449087008E09A4800780E2804D064
:1003700098480078032800D000BF704770B5A84D9A
:10038000A84E94480078102803D0924800780B2893
:1003900046D190480078102829D1A3A2032101203A
:1003A0000EF084F8A8A2032102200EF07FF89C4DE5
:1003B0009C4E002403E0305D2855601CC4B2C82C5C
:1003C000F9DB00240DE0295DA74A1278521E4FF494
:1003D000807303EB0222224490B20DF09BFA601C62
:1003E000C4B2C82CEFDB41F270700DF073FB00203B
:1003F000794908707949087079498870C870012076
:10040000794908707A4908707A490870002097493C
:1004100008709749087097490870974908701CE060
:100420006C480078C8B17A480078B0B9794800784B
:1004300098B97948007880B97848007868B901207F
:1004400076490870744908707249087070490870DC
:100450006749087003206749087000205D490870EB
:1004600070BD70485B4909780C291ED100215A4A99
:1004700011705A4A11705A4A9170D1700121594A2B
:10048000D1705B4A11705B4A11700021774A11707C
:10049000774A1170774A1170774A11707749097855
:1004A00021F00801754A117040E24A4909780E2985
:1004B00070D17149097831B101291BD0022941D08D
:1004C000032968D168E06B490978491CC9B2694AB7
:1004D0001170117011460978182902DD0021117080
:1004E00004E00121424A1170424A11700021604A21
:1004F000117030E15F490978042202EBC101415CCF
:10050000491CCAB25B490978042303EBC101425478
:100510005849097800EBC101097963290CDD632290
:100520005449097803EBC10142540121304A11704A
:100530000321304A117004E001212D4A11702D4A27
:10054000117008E14B490978052202EBC101415CB9
:10055000491CCAB247490978052303EBC10142543B
:100560004449097800EBC10149793B290CDD3B2264
:100570004049097803EBC101425401211C4A117022
:1005800003211C4A117004E00121194A1170194A13
:100590001170E0E0E0E09DE036490978062202EBC8
:1005A000C101425C364991F85B108A426BDA3449EA
:1005B00091F859202F490978062303EBC1014254D1
:1005C00001210B4A11700B4A117082E0F3200020C8
:1005D0008C1300209814002085130020861300201F
:1005E00087130020E01900207C1300204B0000201E
:1005F0004A00002049000020E21400209B13002044
:10060000F81300205F0000205E000020FA13002095
:10061000A8130020A7130020A6130020A513002074
:10062000441800200C1900202020202020CAFDBEE4
:10063000DDD5FDD4DAB1A3B4E62C20202020202083
:1006400020202020202000002020202020202020EA
:10065000202020C7EBC9D4BAF22E2E2E2020202035
:1006600020202020202000009A1300207E1300204C
:100670007F1300204D000020530000205700002071
:10068000EB190020FFE7FE490978062202EBC101C1
:10069000415C491CCAB2FA490978062303EBC1013F
:1006A0004254F749097800EBC1018A79F54991F87C
:1006B0005A108A420DDDF34991F85A20F049097821
:1006C00003EBC10142540121EF4A11700321EF4AAB
:1006D000117040E0EA490978022202EBC101425C54
:1006E000E84991F872108A420EDAE64991F87220D0
:1006F000E3490978022303EBC10142540121E24A94
:100700001170E24A117025E0DD490978022202EBFE
:10071000C101415C491CCAB2D9490978022303EBE3
:10072000C1014254D649097800EBC1018978D54A04
:1007300092F8702091420DDDD24991F87020D04995
:10074000097803EBC10142540121CF4A1170032102
:10075000CE4A117000BFA7E6CD49097803296FD1B1
:10076000CC49097831B101291CD0022948D003298C
:1007700067D175E0C249097800290CDDC0490978C4
:10078000491EC9B2BE4A117011700121BE4A1170D2
:10079000BE4A117002E01821B94A11700021BE4A08
:1007A0001170C3E0B649097800EBC101097900294D
:1007B00018DDB3490978042202EBC101415C491EEE
:1007C000CAB2AF490978042303EBC1014254AC49D2
:1007D000097803EBC10142540121AB4A1170AB4AC5
:1007E00011700CE00022A6490978042303EBC10133
:1007F00042540121A44A11700321A44A117095E0CA
:100800009F49097800EBC101497900291ADD9C490B
:100810000978052202EBC101415C491ECAB2984920
:100820000978052303EBC10142549549097803EB8C
:10083000C10142540121944A1170944A11700EE092
:1008400075E040E000228E490978052303EBC101E1
:10085000425401218C4A117003218C4A117065E0C9
:100860008749097800EBC1018A79864991F85B10C4
:100870008A4218DD82490978062202EBC101415CF7
:10088000491ECAB27E490978062303EBC1014254CE
:100890007B49097803EBC101425401217A4A117066
:1008A0007A4A11700EE0774991F859207449097815
:1008B000062303EBC10142540121734A1170032145
:1008C000724A117032E06E49097800EBC1018A78F2
:1008D0006C4991F872108A4218DD69490978022240
:1008E00002EBC101415C491ECAB265490978022385
:1008F00003EBC10142546249097803EBC101425440
:100900000121614A1170614A11700EE05D4991F850
:1009100072205B490978022303EBC1014254012193
:10092000594A11700321594A117000BF3CE35849DC
:100930000978072913D10621584A1170584A1170B5
:100940000121584A91700021D170574AD17001217C
:10095000564A11704C4A11704C4A117024E34C49AC
:1009600009780F2917D10121514A11704D4A517050
:1009700048490978491CC9B2464A1170117011469C
:100980000978052901DB0021117001213E4A11700F
:100990003E4A117008E33E4909780A2959D1454970
:1009A0000978C909A9BB43490978C1F3400191B944
:1009B00041490978C1F3C00169B93E49097821F07C
:1009C0000201891C3B4A117058222D49097800EB1D
:1009D000C101CA7030E037490978C1F34001C9B19B
:1009E00035490978C1F3C001A1B93249097821F02C
:1009F0000201304A11703049097821F008010831AC
:100A00002D4A11704A221E49097800EBC101CA70B3
:100A100012E017E02749097821F00201254A1170F8
:100A20002549097821F00801234A11700022144950
:100A3000097800EBC101CA700121134A1170134AF1
:100A40001170B1E20121104A117003210F4A117097
:100A5000AAE20F49097804295CD116490978C90925
:100A600061BB14490978C1F3801139BB1149097878
:100A70008908C9430F4A127861F382020D491EE0CA
:100A80004D000020EB1900204A0000204900002002
:100A900098140020530000207F13002085130020AD
:100AA0008613002087130020E01900207C1300200B
:100AB00013000020590000205700002023E00A7096
:100AC0000978C1F3800161B1FE49097800EBC101E9
:100AD000497841F00102FB49097800EBC1014A70F5
:100AE0000BE0F849097800EBC101497801F00E02EA
:100AF000F449097800EBC1014A700121F24A1170F2
:100B0000F24A117050E20121EF4A11700321EF4ABD
:100B1000117049E2EE49097808293DD1ED4909787B
:100B2000C90989BBEB490978C1F3801161BBE94967
:100B30000978C908C943E74A127861F3C302E54955
:100B40000A700978C1F3C00161B1DE49097800EB90
:100B5000C101497841F00202DA49097800EBC1018C
:100B60004A700BE0D749097800EBC101497801F0E0
:100B70000D02D449097800EBC1014A700121D24A23
:100B80001170D24A11700FE2FFE70121CE4A1170B5
:100B90000321CE4A117007E2CD4909780D293DD1D4
:100BA000CC490978C90989BBCA490978C1F38011C0
:100BB00061BBC84909780909C943C64A127861F37B
:100BC0000412C4490A700978C1F3001161B1BD492A
:100BD000097800EBC101497841F00402B94909786C
:100BE00000EBC1014A700BE0B649097800EBC10186
:100BF000497801F00B02B349097800EBC1014A7052
:100C00000121B14A1170B14A1170CDE1FFE7012114
:100C1000AD4A11700321AD4A1170C5E1AC490978A4
:100C2000012952D1AB490978C90981BBA949097881
:100C3000C1F3801159BBA849097851B90121A64ACD
:100C40001170A449097821F020012031A14A1170C6
:100C500027E0A149097801290AD102219E4A117091
:100C60009C49097821F0200120319A4A117018E03E
:100C70009949097802290BD10321974A11709549A6
:100C8000097821F020012031924A117009E015E025
:100C90000021914A11708F49097821F020018D4A75
:100CA00011708D490A788749097800EBC101CA7132
:100CB0000121854A1170854A117075E10121824A2E
:100CC00011700321814A11706EE18149097805296B
:100CD00069D180490978C909F1BB7E490978890938
:100CE000C9437C4A127861F386127A490A700978FE
:100CF000C1F3801161B17349097800EBC1014978F2
:100D000041F008026F49097800EBC1014A700BE01D
:100D10006C49097800EBC101497801F00702694983
:100D2000097800EBC1014A706A490978C1F3801162
:100D300061B36849097821F00401664A11701146CF
:100D4000097821F0080111701146097821F010018D
:100D500011700021604A00E01EE011705D490978C1
:100D600021F020015B4A117000225649097800EBFE
:100D7000C101CA715349097800EBC101497801F0FA
:100D800008025049097800EBC1014A7001214E4A1E
:100D900011704E4A117007E101214B4A1170032175
:100DA0004A4A117000E14A49097809297ED14B4924
:100DB0000978E9BB0121494A11704649097821F0B7
:100DC00080018031434A11701146097821F00201F7
:100DD00011704349097821F00801414A11703D49D9
:100DE000097821F004013B4A11701146097821F07D
:100DF000080111701146097821F0100111700021CD
:100E0000354A11703349097821F02001314A1170B7
:100E100000222C49097800EBC101CA712D490978DB
:100E200021F040012B4A11705A222649097800E02E
:100E300009E000EBC101CA7000222249097800EBE9
:100E4000C1014A70A1E025490978012959D102213F
:100E5000224A11701F49097821F0800180311D4A12
:100E600011701146097821F0020111701C490978AE
:100E700021F008011A4A11701649097821F004017D
:100E8000144A11701146097821F0080111701146B9
:100E9000097821F01001117000210F4A11700D49DD
:100EA000097821F020010B4A117000E073E0002264
:100EB0000449097800EBC101CA710649097821F09B
:100EC00040010FE04D0000204A00002049000020B2
:100ED00098140020590000201B0000201C00002056
:100EE00057000020FC4A11704722FC49097800EBAA
:100EF000C101CA700022F949097800EBC1014A70AA
:100F000043E00021F64A1170F349097821F080018D
:100F1000F14A11701146097821F002011170F1496E
:100F2000097821F00801EF4A1170EB49097821F0A6
:100F30000401E94A11701146097821F00801117085
:100F40001146097821F0100111700021E64A117054
:100F5000E149097821F02001DF4A11700022DF49C0
:100F6000097800EBC101CA71DB49097821F0400121
:100F7000D94A11700022D949097800EBC101CA7021
:100F8000D649097800EBC1014A700121D74A117096
:100F9000D74A117008E0D749097829B10121D34A0D
:100FA00011700321D24A11707047D3490878D14992
:100FB00009780C2926D1D1490978C1F3401129B902
:100FC0000021CF4A1170CF4A117009E0CB4909784E
:100FD000C1F3401121B10A21C94A1170C94A1170E7
:100FE0000021C94A9170D1700121C84AD1700021F5
:100FF000C74A1170C74A11700121BC4A1170BC4A1E
:10100000117033E0BB4909780E2919D148B1BE49A6
:10101000C978491EBC4AD1700121B44A1170B44A42
:101020001170B949CA78411E8A4202DCB649C978B2
:1010300011B90021B44AD1700021AE4A117015E0F7
:10104000AC490978032911D180B1AF49C978491C4D
:10105000AD4AD1700121A54A1170A54A1170AA4963
:10106000CA78411E8A4201DDA74AD1700021A14AF7
:10107000117070479F4800780C2810D10320A049B8
:101080000870A049087001209F49887008460079BF
:10109000C8700120954908709549087008E0954886
:1010A000007828B101209149087003209049087008
:1010B000002090490870704770B58E4800780C2861
:1010C00017D19148407818B100208F4948700AE044
:1010D00003208B4908708B49087001208A49887069
:1010E00008460079C870012080490870804908705E
:1010F000D0E0804800780E2840D18348407830B353
:101100008148C07802281BDC7F48C1788248405C57
:1011100063280ADA7C48C1787F48405C401CC0B232
:101120007949CA787C49885400E063207649CA78B6
:101130007949885401206D4908706D490870A9E00B
:1011400001206A490870032069490870A2E06E48CE
:10115000C078401E6C49C8700846C0786C49097850
:10116000884202DC6848C07810B900206649C8701F
:1011700001205E4908705E4908708BE05D48007888
:10118000032845D16048407868B35F48C07838B1DB
:101190005D48C078012803D05B48C07802281BD185
:1011A0005948C1785C48405C00280ADD5648C1783F
:1011B0005948405C401EC0B25349CA7856498854C9
:1011C00000E000205049CA7853498854012047491B
:1011D0000870474908705DE0012044490870032009
:1011E0004349087056E04848C078401C4649C870DA
:1011F0000846C07846490978884203DD44480078AB
:101200004149C8700120394908703949087041E0E6
:1012100038480078072834D13B48007870B13A4804
:10122000407858B93848C078022807DC0120364990
:1012300048702E4908702E4908702BE0324800781B
:10124000C0B131484078A8B1334D00202E494870D4
:10125000002407E015F8011B04F170000CF05AFBA4
:10126000601CC4B2032CF5DB012020490870204922
:1012700008700FE001201D49087003201C49087008
:1012800008E01C48007828B10120184908700320A4
:101290001749087000201749087070BD70B51548CF
:1012A00000780C283AD11848407818B10020164927
:1012B00048700AE0032012490870124908700120A2
:1012C0001149887008460079C870012007490870E4
:1012D0000749087002E20000590000204D0000207C
:1012E0001C000020570000201B0000204A000020A6
:1012F00049000020981400208E1300205B0000207D
:10130000851300208613002087130020E019002099
:1013100080130020831300205B1A0020FC48007813
:101320000E287DD1FB48407800287AD0F948C07853
:1013300038B1F848C078012803D0F648C0780228B0
:101340001BD1F448C178F448405C0F280ADAF14810
:10135000C178F148405C401CC0B2EE49CA78EE4901
:10136000885400E00F20EB49CA78EB4988540120EB
:10137000EA490870EA490870B0E1E648C0780328F5
:101380001BD1E448C178E448405C14280ADAE148FB
:10139000C178E148405C401CC0B2DE49CA78DE49F1
:1013A000885400E01420DB49CA78DB4988540120C6
:1013B000DA490870DA49087090E1D648C078042804
:1013C0001BD1D448C178D448405C5A280ADAD148A5
:1013D000C178D148405C401CC0B2CE49CA78CE49E1
:1013E000885400E05A20CB49CA78CB498854012060
:1013F000CA490870CA49087070E1C648C078052813
:101400001ED1C448C178C448405C96280DDAC14852
:10141000C178C148405C401CC0B2BE49CA7801E0F6
:101420004CE034E0BC49885400E09620B949CA78C1
:10143000B94988540120B9490870B94908704DE18B
:10144000B448C07806281BD1B248C178B248405C85
:1014500008280ADAAF48C178AF48405C401CC0B2E7
:10146000AC49CA78AC49885400E00820A949CA7838
:10147000A94988540120A9490870A94908702DE19B
:101480000120A64908700320A549087026E1A1485B
:10149000C078401E9F49C8700846C078A1490978A5
:1014A000884202DC9B48C07810B900209949C87076
:1014B00001209A4908709A4908700FE19448007811
:1014C00003287DD19348407800287AD09148C0788D
:1014D00038B19048C078012803D08E48C0780228DF
:1014E0001BD18C48C1788C48405C0A280ADD8948A9
:1014F000C1788948405C401EC0B28649CA78864996
:10150000885400E00A208349CA788349885401201E
:101510008249087082490870E0E07E48C07803285C
:101520001BD17C48C1787C48405C0F280ADD794893
:10153000C1787948405C401EC0B27649CA78764985
:10154000885400E00F207349CA78734988540120F9
:101550007249087072490870C0E06E48C07804286B
:101560001BD16C48C1786C48405C1E280ADD694874
:10157000C1786948405C401EC0B26649CA78664975
:10158000885400E01E206349CA78634988540120CA
:101590006249087062490870A0E05E48C07805287A
:1015A0001ED15C48C1785C48405C5A280DDD594822
:1015B000C1785948405C401EC0B25649CA7801E023
:1015C0004AE034E05449885400E05A205149CA782E
:1015D00051498854012051490870514908707DE0F3
:1015E0004C48C07806281BD14A48C1784A48405C1C
:1015F00004280ADD4748C1784748405C401EC0B215
:101600004449CA784449885400E004204149CA78D2
:1016100041498854012041490870414908705DE002
:1016200001203E49087003203D49087056E03948C2
:10163000C078401C3749C8700846C07839490978D5
:10164000884203DD374800783249C87001203349A9
:1016500008703349087041E02D480078072834D1DC
:101660002C48007870B12B48407858B92948C07888
:10167000062807DC012027494870284908702849B6
:1016800008702BE023480078C0B122484078A8B108
:10169000214D00201F494870002407E015F8011B68
:1016A00004F168000CF036F9601CC4B2082CF5DBBC
:1016B00001201A4908701A4908700FE001201749E3
:1016C000087003201649087008E01148007828B116
:1016D00001201249087003201149087000200C49AC
:1016E000087070BD70B50A4800780C2820D103201E
:1016F0000D4908700D490870012006498870084698
:101700000079C8700120054908700549087048E152
:101710009814002087130020531A00204A0000204C
:10172000490000208013002085130020861300202C
:10173000FE4800780E2871D1FD48407800286FD00F
:10174000FB48C078D8B9FA48C178FA48405C032809
:101750000ADAF748C178F748405C401CC0B2F44947
:10176000CA78F449885400E00320F149CA78F14965
:1017700088540120F0490870F049087011E1EC48E4
:10178000C078012803D0EA48C07802281BD1E84875
:10179000C178E848405CF0280ADAE548C178E548B5
:1017A000405C401CC0B2E249CA78E249885400E07B
:1017B000F020DF49CA78DF4988540120DE490870EB
:1017C000DE490870EDE0DA48C078032803D0D84835
:1017D000C07804281BD1D648C178D648405C9628EA
:1017E0000ADAD348C178D348405C401CC0B2D04923
:1017F000CA78D049885400E09620CD49CA78CD49AE
:1018000088540120CC490870CC490870C9E00120F7
:10181000C94908700320C9490870C2E017E0FFE712
:10182000C348C078401EC249C8700846C078C44941
:101830000978884202DCBE48C07810B90020BC4953
:10184000C8700120BC490870BC490870A9E0B748BD
:101850000078032863D1B648407800284AD0B448BD
:10186000C07802281BDCB248C178B248405C01282D
:101870000ADDAF48C178AF48405C401EC0B2AC49F9
:10188000CA78AC49885400E00120A949CA78A9491E
:1018900088540120A8490870A849087081E0A4482C
:1018A000C078032803D0A248C07804281BD1A048E0
:1018B000C178A048405C5A280ADD9D48C1789D48FF
:1018C000405C401EC0B29A49CA789A49885400E0E8
:1018D0005A209749CA789749885401209649087038
:1018E000964908705DE001209349087003209349F0
:1018F000087056E08E48C078401C8D49C870084674
:10190000C0788F490978884203DD8D48007888497E
:10191000C8700120884908708849087041E08348F0
:101920000078072834D18248007870B18048407828
:1019300058B97F48C078042807DC01207C494870EA
:101940007D4908707D4908702BE079480078C0B166
:1019500077484078A8B1774D002075494870002439
:1019600007E015F8011B04F160000BF0D3FF601CC9
:10197000C4B2082CF5DB01206F4908706F4908706C
:101980000FE001206C49087003206C49087008E0E2
:101990006648007828B1012067490870032067492C
:1019A000087000206149087070BD70B55F4800780C
:1019B0000C2817D15E48407818B100205C49487067
:1019C0000AE003205F4908705F4908700120584908
:1019D000887008460079C870012057490870574937
:1019E0000870C3E0514800780E2834D15048407840
:1019F000D0B14F48C1784F480838405C63280CDAB2
:101A00004B48C1784B480838405C401CC0B248493C
:101A1000CA7848490839885400E063204449CA78A4
:101A200044490839885410E04148C078401E404974
:101A3000C8700846C07842490978884202DC3C48B0
:101A4000C07810B900203A49C87001203A4908709E
:101A50003A4908708AE035480078032832D1344882
:101A60004078D0B13248C17832480838405C00280C
:101A70000CDD2F48C1782F480838405C401EC0B2AA
:101A80002B49CA782B490839885400E0002028499E
:101A9000CA782849083988540EE02548C078401C87
:101AA0002349C8700846C07825490978884203DD73
:101AB000234800781E49C87001201F4908701F493B
:101AC000087053E019480078072846D11848007874
:101AD00070B11748407858B91548C078032807DC1A
:101AE00001201349487014490870144908703DE0FA
:101AF0000F480078C8B10E484078B0B10D4D083D90
:101B000000200B494870002407E015F8011B04F180
:101B100058000BF0FFFE601CC4B2042CF5DB012062
:101B2000054908700549087020E00FE0981400206E
:101B3000871300204B1A00204A0000204900002093
:101B40008013002085130020861300200120FC490B
:101B500008700320FB49087008E0FB48007828B1B2
:101B60000120F74908700320F64908700020F64963
:101B7000087070BD70B5F44800780C2817D1F34890
:101B8000407818B10020F14948700AE00320F0497C
:101B90000870F04908700120EC4988700846007907
:101BA000C8700120E6490870E6490870E5E0E6489B
:101BB00000780E286CD1E5484078002851D0E348E1
:101BC000C07838B1E148C078022803D0DF48C07837
:101BD00004281BD1DD48C178DF48405C63280ADA5D
:101BE000DA48C178DC48405C401CC0B2D749CA78AA
:101BF000D949885400E06320D449CA78D64988542A
:101C00000120CF490870CF490870B6E0CF48C078AE
:101C1000012803D0CD48C07803281BD1CB48C17818
:101C2000CD48405C78280ADAC848C178CA48405C88
:101C3000401CC0B2C549CA78C749885400E0782022
:101C4000C249CA78C44988540120BD490870BD49B9
:101C5000087092E00120BA4908700320B949087061
:101C60008BE0BA48C078401EB849C8700846C078B2
:101C7000BA490978884202DCB448C07810B900201B
:101C8000B249C8700120AE490870AE49087074E0CE
:101C9000AD48007803282ED1AC484078B0B1AB48AD
:101CA000C178AD48405C01280ADDA848C178AA483F
:101CB000405C401EC0B2A549CA78A749885400E0DC
:101CC0000120A249CA78A44988540EE09F48C078F0
:101CD000401C9E49C8700846C078A04909788842CF
:101CE00003DD9E4800789949C87001209449087026
:101CF0009449087041E094480078072834D193480B
:101D0000007870B19148407858B99048C07804285C
:101D100007DC01208D49487089490870894908709D
:101D20002BE08A480078C0B188484078A8B18A4D35
:101D3000002086494870002407E015F8011B04F1D3
:101D400050000BF0E7FD601CC4B2052CF5DB012050
:101D50007B4908707B4908700FE0012078490870C2
:101D600003207849087008E07748007828B10120FE
:101D70007349087003207349087000207249087085
:101D800070BD70B5704800780C2817D16F48407846
:101D900018B100206D4948700AE003206C490870B2
:101DA0006C49087001206949887008460079C8703C
:101DB0000120634908706349087030E16248007887
:101DC0000E2872D161484078002877D05F48C078EB
:101DD000022803D05D48C07803281FD15B48C17832
:101DE0005D480838405C78280CDA5848C1785A4871
:101DF0000838405C401CC0B25449CA78564908397A
:101E0000885400E078205149CA78534908398854E9
:101E100001204B4908704B49087000E14B48C078DD
:101E2000F8B94A48C1784C480838405C96280CDA22
:101E30004648C17848480838405C401CC0B2434915
:101E4000CA7845490839885400E096203F49CA7845
:101E500041490839885401203949087039490870C6
:101E6000DDE03A48C078012821D13848C1783A48A5
:101E70000838405CF0280CDA3448C1783648083815
:101E8000405C401CC0B23149CA7833490839885493
:101E900000E0F0202D49CA782F49083988540120E4
:101EA0002749087027490870B9E01EE006E00120C4
:101EB00023490870032023490870B0E02348C07804
:101EC000401E2249C8700846C078244909788842D3
:101ED00002DC1E48C07810B900201C49C8700120DF
:101EE000174908701749087099E0174800780328C7
:101EF00053D11648407898B31448C078032830DC92
:101F00001248C17814480838405C01280CDD0F489D
:101F1000C17811480838405C401EC0B20B49CA78ED
:101F20000D490839885400E001200849CA780A4957
:101F300008398854012002490870024908706EE08F
:101F40004A00002049000020981400208713002038
:101F500085130020861300203B1A002080130020E8
:101F600006E00120F74908700320F749087056E0A1
:101F7000F648C078401CF549C8700846C078F44956
:101F80000978884203DDF2480078F049C8700120E2
:101F9000EC490870EC49087041E0EE4800780728E9
:101FA00034D1EA48007870B1E848407858B9E74839
:101FB000C078032807DC0120E4494870E149087033
:101FC000E14908702BE0E1480078C0B1DF48407873
:101FD000A8B1E14D0020DD494870002407E015F864
:101FE000011B04F148000BF095FC601CC4B2082CE6
:101FF000F5DB0120D3490870D34908700FE00120B8
:10200000D04908700320D049087008E0D148007812
:1020100028B10120CB4908700320CB49087000206B
:10202000CC49087070BD70B5CA4800780C2817D12B
:10203000C648407818B10020C44948700AE003201F
:10204000C6490870C64908700120C0498870084612
:102050000079C8700120BB490870BB49087092E143
:10206000BC4800780E2872D1B848407800286FD05C
:10207000B648C078F8B9B548C178B7480838405C68
:1020800063280CDAB148C178B3480838405C401C7A
:10209000C0B2AE49CA78B0490839885400E063201C
:1020A000AA49CA78AC49083988540120A549087062
:1020B000A549087067E1A548C078022803D0A34865
:1020C000C07803281FD1A148C178A3480838405CD4
:1020D00078280CDA9D48C1789F480838405C401C3D
:1020E000C0B29A49CA789C490839885400E07820DF
:1020F0009649CA789849083988540120914908704E
:10210000914908703FE19148C078042821D18F4857
:10211000C17891480838405CF0280CDA8B48C178C7
:102120008D480838405C401CC0B28849CA788A494A
:102130000839885400E0F0208449CA788649083973
:10214000885401207F4908707F4908701BE146E0F0
:102150002EE07E48C078052803D07C48C078062849
:102160001FD17A48C1787C480838405C1E280CDAB8
:102170007648C17878480838405C401CC0B2734942
:10218000CA7875490839885400E01E206F49CA781A
:1021900071490839885401206A4908706A490870F1
:1021A000F1E0012067490870032067490870EAE000
:1021B0006648C078401E6549C8700846C0786449C2
:1021C0000978884202DC6148C07810B900205F4974
:1021D000C87001205B4908705B490870D3E05D4816
:1021E0000078032877D15948407800285DD05748B7
:1021F000C07858B15548C078042807D05348C078F3
:10220000052803D05148C07806281FD14F48C1780F
:1022100051480838405C01280CDD4C48C1784E48D4
:102220000838405C401EC0B24849CA784A4908395B
:10223000885400E001204549CA7847490839885444
:10224000012040490870404908709CE03F48C07830
:10225000022803D03D48C07803281FD13B48C178ED
:102260003D480838405C00280CDD3848C1783A48C1
:102270000838405C401EC0B23449CA783649083933
:10228000885400E000203149CA783349083988541D
:1022900001202C4908702C49087074E0012029495C
:1022A00008700320284908706DE02848C078401C59
:1022B0002649C8700846C07825490978884203DD58
:1022C000234800782149C87001201E4908701E4922
:1022D000087058E0FFE71F48007807284AD11B48DC
:1022E000007890B11948407878B91848C078062825
:1022F0000BDC1648C078012807D00120134948702C
:1023000010490870104908703DE01048007848B343
:102310000E48407830B3104D083D00200B494870FE
:10232000002407E015F8011B04F140000BF0F2FA5D
:10233000601CC4B2082CF5DB012002490870024978
:10234000087020E04A000020490000208713002088
:102350008013002098140020331A002085130020D9
:1023600086130020FFE70120FE4908700320FE4984
:10237000087008E0FD48007828B10120F94908708C
:102380000320F94908700020F849087070BD70B545
:10239000F64800780C2817D1F548407818B100208D
:1023A000F34948700AE00320F2490870F2490870C6
:1023B0000120EF49887008460079C8700120E9497A
:1023C0000870E9490870F4E0E84800780E2864D104
:1023D000E7484078002849D0E548C078D8B9E448B3
:1023E000C178E648405C63280ADAE148C178E348EE
:1023F000405C401CC0B2DE49CA78E049885400E025
:102400006320DB49CA78DD4988540120D54908702A
:10241000D5490870CDE0D648C078012803D0D4480B
:10242000C07802281BD1D248C178D448405C7828B3
:102430000ADACF48C178D148405C401CC0B2CC49D0
:10244000CA78CE49885400E07820C949CA78CB4977
:1024500088540120C3490870C3490870A9E00120CD
:10246000C04908700320C0490870A2E0C048C07885
:10247000401EBF49C8700846C078C14909788842E3
:1024800002DCBB48C07810B90020B949C8700120EF
:10249000B4490870B44908708BE0B4480078032848
:1024A00045D1B348407868B3B148C07838B1B04836
:1024B000C078012803D0AE48C07802281BD1AC48B0
:1024C000C178AE48405C01280ADDA948C178AB4814
:1024D000405C401EC0B2A649CA78A849885400E0B2
:1024E0000120A349CA78A549885401209D49087054
:1024F0009D4908705DE001209A49087003209A49BF
:10250000087056E09A48C078401C9949C87008463F
:10251000C0789B490978884203DD9948007894493E
:10252000C87001208F4908708F49087041E08F48BA
:102530000078072834D18E48007870B18C484078F4
:1025400058B98B48C078022807DC012088494870B8
:1025500084490870844908702BE085480078C0B130
:1025600083484078A8B1854D0020814948700024F7
:1025700007E015F8011B04F138000BF0CBF9601CE3
:10258000C4B2032CF5DB0120764908707649087047
:102590000FE001207349087003207349087008E0B8
:1025A0007248007828B101206E49087003206E49F6
:1025B000087000206D49087070BD10B56B48007838
:1025C0000C2817D16A48407818B100206849487033
:1025D0000AE00320674908706749087001206449D0
:1025E000887008460079C87001205E4908705E490D
:1025F0000870DAE05D4800780E2840D15C484078E9
:1026000030B35B48C07801281BD15C48383890F85B
:102610003100F0280ADA5948383890F83100401C67
:10262000C0B25649383981F8310000E0F0205349F2
:10263000383981F8310001204A4908704A49087048
:10264000B3E0012047490870032047490870ACE017
:102650004748C078401E4649C8700846C078484977
:102660000978884202DC4248C07810B9002040490D
:10267000C87001203B4908703B49087095E03B4811
:10268000007803283ED13A48407830B33848C078C3
:1026900001281BD13948383890F8310001280ADD6B
:1026A0003648383890F83100401EC0B233493839C6
:1026B00081F8310000E001203049383981F83100DB
:1026C000012028490870284908706EE0012025493A
:1026D000087003202449087067E02548C078401C32
:1026E0002349C8700846C07825490978884203DD27
:1026F000234800781E49C87001201A4908701A49F9
:10270000087052E019480078072845D11848007829
:10271000A0B11748407888B91548C078012806D17B
:10272000134948700F4908700F4908703DE00120B7
:102730000C49087003200C49087036E00C480078FA
:1027400018B30B48407800B30020094948700B4883
:10275000383890F8311031200BF0DCF801200149B5
:1027600008700FE04A000020490000209814002063
:10277000871300208513002086130020231A0020D1
:1027800080130020FE4908700FE00120FD49087009
:102790000320FB49087008E0FB48007828B10120BD
:1027A000F84908700320F64908700020F6490870BF
:1027B00010BD70B5F44800780C2817D1F348407864
:1027C00018B10020F14948700AE00320F049087070
:1027D000F04908700120ED49887008460079C870FA
:1027E0000120E8490870E6490870ECE0E648007806
:1027F0000E2863D1E5484078002848D0E348C078E7
:10280000F8B1E248C07806281BDCE048C178E2480D
:10281000405C63280ADADD48C178DF48405C401C30
:10282000C0B2DA49CA78DC49885400E06320D7494D
:10283000CA78D94988540120D2490870D049087013
:10284000C1E0D248C078D8B9D048C178D248405CFD
:1028500032280ADACD48C178CF48405C401CC0B26B
:10286000CA49CA78CC49885400E03220C749CA789E
:10287000C94988540120C3490870C1490870A2E0C1
:102880000120C04908700320BD4908709BE0BF4883
:10289000C078401EBD49C8700846C078BF49097855
:1028A000884202DCB948C07810B90020B749C87026
:1028B0000120B4490870B249087084E0B248007839
:1028C00003283ED1B148407830B3B048C0780628DC
:1028D0001BDCAE48C178B048405C00280ADDAB483C
:1028E000C178AD48405C401EC0B2A849CA78AA4928
:1028F000885400E00020A549CA78A74988540120DF
:10290000A04908709E4908705DE001209D4908704B
:1029100003209B49087056E09C48C078401C9B49A6
:10292000C8700846C0789D490978884203DD9B48F5
:1029300000789649C8700120924908709049087043
:1029400041E091480078072834D19048007870B170
:102950008E48407858B98D48C078062807DC012099
:102960008A49487087490870854908702BE0874874
:102970000078C0B185484078A8B1874D00208349D0
:102980004870002407E015F8011B04F128000AF044
:10299000C1FF601CC4B2082CF5DB01207949087026
:1029A000774908700FE001207649087003207449C8
:1029B000087008E07448007828B101207149087057
:1029C00003206F49087000206F49087070BD6E4881
:1029D00000780C2810D103206D4908706D490870EB
:1029E00001206A49887008460079C870012065494D
:1029F0000870634908703CE0634800780E2816D1DF
:102A00006248C078401E6149C8700846C078634972
:102A10000978884202DC5D48C07810B900205B4923
:102A2000C8700120574908705549087021E0564880
:102A30000078032814D15548C078401C5349C87009
:102A40000846C07855490978884203DD5348007824
:102A50004E49C87001204B4908704949087008E088
:102A60004948007828B101204649087003204449AC
:102A700008700020444908707047434800780C28CB
:102A800010D10320424908704249087001203F4993
:102A9000887008460079C87001203A4908703849A2
:102AA00008703CE0384800780E2816D13748C078C6
:102AB000401E3649C8700846C078384909788842AF
:102AC00002DC3248C07810B900203049C8700120BB
:102AD0002C4908702A49087021E02B480078032807
:102AE00014D12A48C078401C2849C8700846C078CC
:102AF0002A490978884203DD284800782349C870AC
:102B00000120204908701E49087008E01E4800781E
:102B100028B101201B4908700320194908700020C2
:102B200019490870704770B5174800780C2817D1FC
:102B30001648407818B10020144948700AE0032074
:102B4000134908701349087001201049887008461D
:102B50000079C87001200B4908700949087047E1E5
:102B6000094800780E287BD108484078002878D0A2
:102B70000648C078002878D00448C07801280FE0C3
:102B8000490000204A0000209814002087130020EC
:102B90008513002086130020131A002080130020C4
:102BA0000ED1FC48407C1E2806DAFA48407C401CC6
:102BB000C0B2F849487400E01E20F649487454E059
:102BC000F548C07802280ED1F248807C632806DAE6
:102BD000F048807C401CC0B2EE49887400E063205D
:102BE000EC49887441E0EC48C07803281BD1EA48DE
:102BF000C178E8481030405C03280DDAE648C17817
:102C0000E4481030405C401CC1B2E348C278E1485F
:102C100010308154084600E00320DF49CA78DD49BE
:102C20001031885421E0DC48C078042809D1D94803
:102C3000007D6E2801D1792100E06E21D548017513
:102C400013E0D548C07805280FD1D248407D1E2812
:102C500008DAD048407D401CC0B2CE49487502E039
:102C600020E008E01E20CB4948750120CB490870C0
:102C7000CB49087010E0C848C078401EC649C870EB
:102C80000846C078C7490978884202DCC248C07843
:102C900010B90020C049C8700120C0490870C0495F
:102CA0000870A5E0C0480078032854D1BA4840789D
:102CB000B8B3B948C07848B3B748C07802280BD039
:102CC000B548C078032807D0B348C078012803D09E
:102CD000B148C07805281AD1AF48C178AD48103046
:102CE000405C00280CDDAC48C178AA481030405C3C
:102CF000401EC0B2A849CA78A6491031885400E0E5
:102D00000020A549CA78A349103188541DE0A24883
:102D1000C078042819D19F48007D6E2802D17921FE
:102D200001E003E06E219B4801750EE09A48C078EF
:102D3000401C9949C8700846C0789A490978884269
:102D400003DD984800789449C870012093490870C1
:102D5000934908704CE09448007807283FD18E488A
:102D60000078C0B18C484078A8B98B48C078032857
:102D70000ADC8948C07838B1012087494870874902
:102D800008708749087033E00120844908700320E7
:102D9000834908702CE080480078C8B17E484078AC
:102DA000B0B17C4D103500207B494870002407E00D
:102DB00015F8011B04F110000AF0ACFD601CC4B250
:102DC000082CF5DB012075490870754908700FE083
:102DD00001207249087003207149087008E07248A8
:102DE000007828B101206D49087003206C490870F3
:102DF00000206D49087070BD70B56B4800780C28D4
:102E000017D16548407818B10020634948700AE03E
:102E10000320664908706649087001205E49887081
:102E200008460079C87001205C4908705C49087048
:102E300006E15D4800780E2854D15748407890B399
:102E40005548C07858B15448C078012807D0524836
:102E5000C078022803D05048C07804280FD14E48CB
:102E6000C1784C480830405C6E2801D1792100E0DF
:102E70006E214948C2784748083081542CE04648C2
:102E8000C17844480830405C03280DDA4248C178D4
:102E900040480830405C401CC0B23F49CA783D49B8
:102EA0000831885401E006E003203B49CA783949DB
:102EB0000831885410E03848C078401E3649C87040
:102EC0000846C07837490978884202DC3248C07821
:102ED00010B900203049C8700120304908703049CD
:102EE0000870ADE030480078032863D12A48407864
:102EF00090B32948C07858B12748C078012807D036
:102F00002548C078022803D02348C07804280FD170
:102F10002148C1781F480830405C6E2801D17921D2
:102F200000E06E211C48C2781A48083081542AE01B
:102F30001948C17817480830405C01280DDD164853
:102F4000C17814480830405C401EC0B21249CA78AB
:102F500010490831885401E006E001200E49CA7882
:102F60000C49083188540EE00B48C078401C0A49CF
:102F7000C8700846C0780B490978884203DD0948C3
:102F800000780549C8700120044908700449087098
:102F900056E00FE0EB190020871300204A000020C4
:102FA0004900002080130020981400208513002081
:102FB00086130020F5480078072838D1F4480078B7
:102FC00090B1F348407878B9F148C07804280BD024
:102FD000EF48C078052807D00120ED494870ED4939
:102FE0000870ED4908702BE0E9480078C0B1E84866
:102FF0004078A8B1E94D0020E5494870002407E079
:1030000015F8011B04F108000AF084FC601CC4B22E
:10301000082CF5DB0120DF490870DF4908700FE05C
:103020000120DC4908700320DB49087008E0D7481C
:10303000007828B10120D74908700320D6490870CC
:103040000020D249087070BD70B5D04800780C28B7
:1030500023D1CF48407868B10020CD494870002482
:1030600005E0CF48005DCF490855601CC4B2062C6E
:10307000F7DB09E00320CC490870CC490870012037
:10308000C34988700020C8700120C2490870C24935
:1030900008700020C6490870E0E1BC4800780E289E
:1030A00079D1BB484078D8B1B948C078032817D146
:1030B000BA480838C078C82808DAB8480838C0784C
:1030C000401CC0B2B5490839C87000E0C820B349F7
:1030D0000839C8700120AF490870AF490870BDE1D8
:1030E000AB48407830B3AA48C078052822D1B04810
:1030F0000078AC49085C092809DAAD480078085C1A
:10310000401CC0B2AA490978A64A505400E00020E9
:10311000A7490978A34A5054A54800781146095C8C
:10312000A3480278401D815401209A4908709A49A9
:10313000087093E196484078A8B19548C07858B196
:103140009348C078012807D09148C078022803D05E
:103150008F48C078042806D101208E4908700320CA
:103160008D4908707AE18A48C078401E8849C87045
:103170000846C0788F490978884202DC8448C078C4
:1031800010B900208249C870012082490870824924
:10319000087063E1FFE77D480078032877D17C4819
:1031A0004078D8B17A48C078032817D17B480838CE
:1031B000C078052808DD79480838C078401EC0B2BC
:1031C00076490839C87000E0052074490839C8708C
:1031D000012070490870704908703FE16C484078E0
:1031E00030B36B48C078052822D1714800786D490A
:1031F000085C002809DD6E480078085C401EC0B2FB
:103200006B490978674A505400E0092068490978F9
:10321000644A5054664800781146095C6448027854
:10322000401D815401205B4908705B49087015E11D
:1032300057484078A8B15648C07858B15448C0782B
:10324000012807D05248C078022803D05048C078DF
:10325000042806D101204F49087003204E49087008
:10326000FCE04B48C078401C4949C8700846C0780B
:1032700050490978884203DD4E4800784449C870B7
:1032800001204449087044490870E7E0FFE73F48DF
:103290000078072879D13E480078E0B13C48407872
:1032A000C8B93B48C078022803D03948C078042800
:1032B00005D10120374908700320374908700120E3
:1032C0003349487000203A4908700120314908709C
:1032D00031490870C2E02E48007800287CD02C4884
:1032E0004078002878D00020294948700846C078E6
:1032F000E0B9012027490870274908702EA2122141
:1033000000200BF0D3F80AF015F84EF660200AF012
:10331000E1FB4EF660200AF0DDFB01202949087030
:10332000294A122100200BF0C1F85BE01848C07850
:10333000012814D125A212210BF0B8F8012015495B
:103340000870154908700AF023F841F270700AF00D
:10335000C1FB1D4A122101200BF0A8F842E00C48E5
:10336000C078052839D10F4D00240BE015F8011B5A
:1033700004F1C8000AF0CEFA0A48005D0849085571
:10338000601CC4B2062CF1DB2CE038E0981400205D
:10339000871300204A00002049000020F319002074
:1033A00036130020301300208513002086130020E0
:1033B000E019002080130020D4CBD0D0D6D02E2E00
:1033C0002E0000007C1300203C060008D4CBD0D097
:1033D000D6D02E2E2E2E00000AE0FB48C178032006
:1033E0000AF098FA0120F9490870F949087035E0A7
:1033F0000120F64908700320F54908702EE0F548D1
:1034000000780F2821D1F4484078B8B1F248C0784C
:10341000052813D1F1480078052806DAEF4800782E
:10342000401CC0B2ED49087000E00020EB49087074
:103430000120E6490870E64908700FE00120E349E1
:1034400008700320E249087008E0E248007828B1DB
:103450000120DE4908700320DD4908700020DD49A5
:10346000087070BDDB4800780C2817D1DA48007866
:1034700028B10220DA490870DA49087004E0012016
:10348000D7490870D74908700020D3498870C870A0
:103490000120CE490870CE4908704DE0CD48007833
:1034A0000E2816D1CC48C078401ECB49C8700846BB
:1034B000C078CD490978884202DCC748C07810B985
:1034C0000020C549C8700120C0490870C049087073
:1034D00032E0C0480078032814D1BF48C078401CAF
:1034E000BD49C8700846C078BF490978884203DDE5
:1034F000BD480078B849C8700120B4490870B44983
:10350000087019E0B3480078072815D10420B449A1
:103510000870B4490870B048C078AF4908710846CF
:10352000C078401C88700020C8700120AF49087026
:10353000A6490870A64908700020A649087070477F
:1035400070B50220A7490870A24800780C280ED157
:103550000120A3490870A34908709F498870002082
:10356000C87001209949087099490870E6E09948A7
:1035700000780E2822D1994800789D49085C0928D6
:1035800009DA96480078085C401CC0B29349097873
:10359000974A505400E0002090490978944A5054CA
:1035A0008E4800781146095C8C480278401D815491
:1035B00001208649087086490870BFE08548007878
:1035C000032822D1854800788949085C002809DD54
:1035D00082480078085C401EC0B280490978844A5D
:1035E000505400E009207D490978814A50547B48B5
:1035F00000781146095C79480278401D8154012009
:10360000724908707249087098E07248007807287B
:103610007DD17748007877490978884230D174485D
:1036200040787449497888422AD171488078714934
:103630008978884224D16E48C0786E49C97888421A
:103640001ED16B4800796B490979884218D16848C6
:10365000407968494979884212D101205E49087051
:1036600003205F4908705F49087001205A4988703B
:103670000020C870012055490870554908705DE068
:103680005B48007806283BD159484078B0BB584881
:103690008078032834D15648C07878BB54480079E4
:1036A00009282DD15248407940BB002411E0514DEA
:1036B00002204F4908552946085502214748401D18
:1036C000015515F8011B04F1C8000AF023F9601C2C
:1036D000C4B2062CEBDB01203F49087003204049AF
:1036E00008704049087001203B4988700020C8706C
:1036F000012036490870364908701FE000E006E0F6
:1037000001203249087003203149087016E0314821
:1037100000780F2812D131480078052806DA2F48A2
:103720000078401CC0B22D49087000E000202B49F1
:1037300008700120254908702549087070BD254989
:1037400009780C290FD10021254A1170254A1170E2
:10375000FF21214A91700021D17001211B4A117073
:103760001B4A117098E01B4909780E2914D11A4997
:10377000C978491E184AD1701146C9781A4A127878
:10378000914203DD18490978134AD17001210F4A8B
:1037900011700F4A11707FE00E49097803292BD16F
:1037A0000D49C978491C0C4AD1701146C9780E4A96
:1037B0001278914202DD0021074AD1700121034AAB
:1037C0001170034A117067E0EB1900204A000020D5
:1037D000490000209814002087130020E0190020E1
:1037E0008513002086130020801300207C13002006
:1037F0003013002036130020FE49097807292ED106
:10380000FD49C978012917D1FB4A11700221FB4AF1
:103810001170FB4A1170002003E00021F94A115495
:10382000401C0628F9DB002003E00022F6490A5478
:10383000401C0628F9DB07E00021EF4A1170032144
:10384000EE4A1170EE4A11700121EB4A917000218D
:10385000D1700121ED4A1170ED4A11701CE0E5496B
:103860000978C9B1EB490978B1B9EB49097899B937
:10387000EA49097881B9EA49097869B90121E84A30
:103880001170E64A1170E44A1170E24A1170DF4A81
:1038900011700321DE4A1170704710B5D5480078C9
:1038A0000C2828D1DF480078F0B9DF480078D8B973
:1038B000DE480078C0F38000B0B90520CF49087019
:1038C000CF4908700020CC498870C8700120D849C1
:1038D00008700020CC49491FC8700120CB490870EE
:1038E000CB49087001F0A2BE0120C849087003202E
:1038F000C7490870F6E7BF4800780E2842D1CD4886
:103900000078012804D1CC480088401CCA490880AE
:10391000C44800780028E5D1C34800780028E1D1E8
:10392000C2480078C0F380000028DBD1C34800788B
:10393000C0F340100028D5D1C1480078052805DA29
:10394000BF480078401CBE49087002E00120BC4915
:10395000087000240EE0BA490978491E4FF48072BD
:1039600002EB0121214488B209F0AAFFB5490855AC
:10397000601CC4B2C82CEEDB0120A4490870A44925
:103980000870AFE79B480078032832D1A948007837
:10399000012804D1A8480088401EA7490880A148F2
:1039A000007800289ED1A048007800289AD19F482E
:1039B0000078C0F38000002894D1A0480078C0F3BC
:1039C000401000288ED106208C4908708C49087060
:1039D000002089498870C8709B4908709B4908700D
:1039E0008949491FC87001208849087088490870B2
:1039F00078E780480078072822D18A480078002894
:103A0000BFD1894800780028BBD188480078C0F32E
:103A100080000028B5D189480078C0F34010002804
:103A2000AFD10120754908707549087072498870D6
:103A30000020C8700120754908707549087051E769
:103A40006C480078102850D17648007878B97648CC
:103A5000007860B975480078C0F3800038B97748BD
:103A60000078C0F3401010B97948007830B90120CF
:103A70006649087003206649087033E701206949E8
:103A80000870744908707448007820F00100401CE8
:103A9000714908706548007820F0800080306349E3
:103AA000087000206D49086001206D49C1F8A80127
:103AB0006C48007840B16C48007820F001006A49F9
:103AC00008700020694908706948007820F04000BB
:103AD0006749087000206749087001204B49087049
:103AE0004B49087053490870FCE6424800780B289F
:103AF0007DD14C48007890B94B48007878B94B4854
:103B00000078C0F3800050B95148007838B15A4865
:103B1000007820B101203D4908703D4908704148B6
:103B2000007838B94048007820B940480078C0F3A0
:103B3000800038B14648007820B140480078C0F392
:103B4000401030B10120314908700320304908701D
:103B5000C8E60020344908703249087044480078AB
:103B600020F00100424908703048007820F004003D
:103B70002E490870002041490870414908704149A8
:103B800008704149087041490870012040490860A7
:103B90004048007820F001003E4908703E48007817
:103BA00020F008003C4908702448007820F080008C
:103BB000224908703748007820F002003549087023
:103BC0000020364908703649087036490870364971
:103BD00008703649087015480078C0F3001038B1F5
:103BE000334890F8490033490870314864E083E174
:103BF0006DE000009814002087130020851300203A
:103C00008613002030130020E51900204A00002010
:103C100049000020A8130020A7130020A6130020AD
:103C2000A513002001000020000000205700002004
:103C30007C1300207D130020DE1400205B00002098
:103C40009A130020441800207E1300207F130020C8
:103C5000EE140020141800205C0000208481214212
:103C600000802142EF1400205E0000203E00002072
:103C70005D00002025000020270000204E000020CD
:103C80004F00002050000020510000205200002072
:103C9000B0012242580000205A0000200A180020DB
:103CA0000B1800201600002017000020A21300208F
:103CB000EB1900202C00002090F84C00FE49087001
:103CC000FE48007820F00200801CFC490870FC4887
:103CD000007820F01000FA490870F848007820F0C9
:103CE0000400F6490870F648007820F00800F4490E
:103CF0000870F248007820F00800F04908700020B1
:103D0000F0490870F0490870F048007820F004008D
:103D1000EE4908700846007820F00800087000207E
:103D2000EB4908700120EB4908600020EA4908705F
:103D3000E648007820F01000E44908700020E749C8
:103D400008700120E649C1F8B0010020E54908707B
:103D5000DE48007820F04000DC4908700846007812
:103D600020F0200008700020DF4908700120DC49A5
:103D7000C1F8AC01D148007820F01000CF4908709C
:103D80000846007820F0200008700846007820F0EF
:103D9000400008700120D54908600020D44908700F
:103DA000D4490870D4490870D448007820F0200025
:103DB000D24908700020D2490870D2490870012009
:103DC000D149C1F89801CD48007820F04000CB4996
:103DD0000870BA48007820F08000B84908700020C8
:103DE000CA490870C548007820F08000C3490870AF
:103DF000C748007820F00800C54908700120C24972
:103E0000C1F89C01C34800785A2818D1C2480078EC
:103E1000A8B9C248007890B9C14890F84A00BE4994
:103E20000870BF4890F84D00401DBC490870B84864
:103E3000007820F040004030B54908701BE0B548DC
:103E40000078472817D1B7480078A0B9B64800785D
:103E500088B9B34890F84B00B2490870B04890F860
:103E60004E00401DB0490870A948007820F040007D
:103E70004030A7490870A7480078A0B9A648007844
:103E800088B9A648007870B9A648007858B9A648FD
:103E9000007840B9A548007828B98748007810B95B
:103EA0000020A349087000209A49087098480078BB
:103EB00020F08000964908700846007820F0040041
:103EC0000870012083491039086000209949C1F821
:103ED000A80199490870012098490870984908700C
:103EE0000020984908708E4890F871009649087033
:103EF00000209649C870F5E4954800780A286AD1F0
:103F000094480078002867D07C480078C0090028D1
:103F100062D17A480078C0F380100028F8D1684850
:103F20000078C0F380000028F2D18B480078C0F3FD
:103F300040100028ECD1894800780028E3D05F4881
:103F4000007800F001000028E2D185480078C0F335
:103F5000400000283DD15D48007800F00100C8BB5A
:103F600057480078C0F3C000A0BB5848007820F044
:103F70000100401C554908707A48007820F008007C
:103F8000784908707448007820F080007249087001
:103F90004E48007820F00200801C4C490870032035
:103FA000714908706E48007820F004006C49087070
:103FB0004348007820F00800414908703F480078E5
:103FC00020F004003D4908700846007820F0080001
:103FD0000870F8E001E0B7E1FBE03C48007800F051
:103FE0000100C8B336480078C0F3C000A0BB374812
:103FF000007820F00100354908705A48007820F018
:104000000800584908705448007820F08000524950
:1040100008702E48007820F002002C4908702848CB
:10402000007820F0080008302549087023480078FF
:1040300020F00400001D214908700846007820F097
:10404000080008700320484908704548007820F0AF
:10405000040043490870B6E0FFE71C48007820F0F0
:1040600001001A4908703F48007820F008003D49D7
:1040700008703948007820F08000374908701348EC
:10408000007820F0020011490870002037490870BC
:104090003749087037490870374908700848007870
:1040A00020F00800064908700448007820F0040059
:1040B00002490870084661E02D0000205D000020E4
:1040C00057000020A21300200F18002058000020E5
:1040D000A313002094812142101800209E13002079
:1040E00000002142111800209F130020A00121424E
:1040F0000E1800200D1800200C1800205900002078
:104100001B0000201218002000002242A0130020F3
:104110005C0000201C000020380000203A00002035
:10412000EB190020390000203B0000202C0000206B
:104130001418002000802142A11300204A00002012
:10414000490000207D13002010000020E01900200D
:1041500098140020010000205B000020EE140020D5
:104160005E0000205A0000203C0000200A180020B9
:104170000B1800201600002017000020007820F007
:1041800008000870FE480078C0F3001080B1FD48B8
:1041900090F84900FC490870FA4890F84C00FB4937
:1041A0000870FB48007820F00200801CF849087075
:1041B000F348007820F01000F14908700020F5491C
:1041C0000870F54908700120F4490870F449087036
:1041D000B6E0F448007800287ED1F3480078C009A2
:1041E000002879D1F0480078C0F38010002873D1FE
:1041F000E3480078C0F3800000286DD1EB480078D8
:10420000C0F34010002867D1E9480078002863D047
:10421000DB480078C0F3C00000285DD1E548007895
:1042200088BB0120E34908700020E3490870E34996
:104230000870E34908600120E249C1F8A801D048AC
:10424000007820F080008030CD490870CD4890F88B
:104250007100DD4908700120DC490870DC480078F5
:1042600040B1DC48007820F00100DA4908700020F5
:10427000D9490870C648007820F04000C449087049
:104280000020D6490870D648007800F0010020BB15
:10429000D348007820F00100401CD1490870D14873
:1042A000007820F00800CF490870C048007820F05E
:1042B0008000BE490870CA48007820F00200801CC7
:1042C000C74908700320C8490870C248007820F028
:1042D0000400C049087027E02CE0C148007820F0B5
:1042E0000100BF490870BF48007820F00800BD49B0
:1042F0000870AE48007820F08000AC490870B848DB
:10430000007820F00200B64908709D48007820F03F
:1043100008009B49087000209E4908709E4908705B
:10432000B2490870B249087001209C4908709C4944
:10433000087005E001209949087003209849087029
:104340000020AC49C870D6E5AB48007804287DD180
:1043500094480078D0B394480078C009B0BB924824
:104360000078C0F3801088BB85480078C0F38000D7
:1043700060BB8E480078C0F3401038BB8C48007892
:1043800020B38348007800F00100F8B99148007824
:10439000C0F34000A8BB994800888B49097888423F
:1043A00015DA8F4800786FEA90008D49097860F33C
:1043B00082018B4801700078C0F3800008B3884800
:1043C000007820F00800864908701AE01FE0844851
:1043D00000786FEA90008249097860F38201804892
:1043E00001700078C0F3800028B17D48007820F08B
:1043F00008007B490870012068490870032068495B
:1044000008700120654908706549087097E06548A3
:104410000078E8BB64480078C009C8BB62480078EF
:10442000C0F38010A0BB56480078C0F3800078BB72
:104430005E480078C0F3401050BB5D48007838B348
:104440004F480078C0F3C00010BB00E07BE0594843
:10445000007898BB01205749087000205649087021
:10446000564908705649086001205649C1F8A8010C
:104470004348007820F0800080304149087041486E
:1044800090F871005049087001205049087000E010
:104490004FE04F48007840B14E48007820F00100CE
:1044A0004C49087000204C4908703948007820F0C9
:1044B0004000374908700020484908704F4800887C
:1044C00041490978884214DA454800786FEA90003B
:1044D0004349097860F38201414801700078C0F3D4
:1044E000800000B33E48007820F008003C49087086
:1044F00019E03B4800786FEA90003949097860F389
:104500008201374801700078C0F3800028B1344838
:10451000007820F008003249087001201F49087017
:1045200003201F49087001201C4908701C490870AD
:1045300005E001201949087003201949087000207E
:104540002C49C870D7E42C48007808287ED115483B
:10455000007898B114480078C00978B912480078FA
:10456000C0F3801050B906480078C0F3800028B925
:104570000E480078C0F3401000B941E082E000002E
:1045800057000020EB1900202C0000202D000020F7
:104590005D0000200A1800200B1800204A000020AF
:1045A0004900002001000020590000205B0000208D
:1045B000EE14002000000020190000201A00002046
:1045C0008481214200802142100000201418002024
:1045D000EF1400205E0000203E0000202500002097
:1045E000580000205A0000203C0000201600002047
:1045F00017000020E019002098140020DE1400208D
:10460000FE480078F0B3FE48007800F00100C8BB17
:10461000FC480078C0F34000A8BBFB480088FB4979
:104620000978884216DAFA4800786FEA1010F849DB
:10463000097860F30411F64801700078C0F30010A7
:1046400008B3F348007820F0200000E0BFE0F04914
:1046500008701CE0EE4800786FEA1010EC49097809
:1046600060F30411EA4801700078C0F3001028B12B
:10467000E748007820F02000E54908700120E5496E
:10468000087001E009E002E00320E349087001201E
:10469000E0490870E049087095E0E0480078E8BB20
:1046A000DF480078C009C8BBDD480078C0F380103F
:1046B000A0BBDC480078C0F3800078BBDA48007803
:1046C000C0F3401050BBCD48007838B3D5480078CF
:1046D000C0F3C00010BBD548007898BB0120D34977
:1046E00008700020D2490870D2490870D249086089
:1046F0000120D249C1F8A801CA48007820F0800002
:104700008030C8490870CE4890F87100BF490870E1
:104710000120CC490870CC48007800E04DE040B161
:10472000B848007820F00100B64908700020C74959
:104730000870B348007820F04000B14908700020AC
:10474000C3490870B0480088B0490978884214DA33
:10475000AF4800786FEA1010AD49097860F3041192
:10476000AB4801700078C0F3001000B3A84800788F
:1047700020F02000A649087019E0A54800786FEAEB
:104780001010A349097860F30411A1480170007862
:10479000C0F3001028B19E48007820F020009C490A
:1047A000087001209B49087003209B490870012074
:1047B000984908709849087005E0012095490870EB
:1047C0000320954908700020A249C870BBE5A248A3
:1047D00000780D2875D19148007878B3904800781A
:1047E000C00958BB8E480078C0F3801030BB8D489C
:1047F0000078C0F3800008BB8B480078C0F34010FD
:10480000E0B97E480078C8B17D48007800F001002A
:10481000A0B97C480078C0F3400048B97C480078D3
:104820006FEA90107A49097860F386117848017030
:104830000120784908707849087067E0FFE77748F9
:104840000078E8BB76480078C009C8BB7448007897
:10485000C0F38010A0BB73480078C0F3800078BB21
:1048600071480078C0F3401050BB6448007838B3FA
:104870006C480078C0F3C00010BB6C48007878BB6F
:1048800001206A4908700020694908706949087068
:104890006949086001206949C1F8A80161480078A8
:1048A00020F0800080305F49087001206549087061
:1048B0006548007858B15348007820F0010001E0C5
:1048C0001EE027E04F4908700020604908704C48FE
:1048D000007820F040004A49087000205C490870C8
:1048E0004B4800786FEA90104949097860F38611C7
:1048F000474801700120474908704749087005E0A2
:1049000001204449087003204349087000205149A0
:10491000C87018E55048007801286DD140480078EB
:10492000C00900284AD13E480078C0F38010002812
:1049300044D13C480078C0F3800000283ED13A487A
:104940000078C0F34010C8BB2C480078B0B32C48A6
:10495000007800F0010088BB32480078C0F3C00046
:1049600060BB2E48007850B326480078C0F3400062
:1049700018BB3A48007800B32148007820F01000B6
:104980001F4908700846007820F02000087008468B
:10499000007820F0400008702148007820F02000C6
:1049A0001F49087000202E4908702949087001200D
:1049B0001849087003201849087085E0C0E0FFE737
:1049C0001A480078C8B90120184908700020184911
:1049D0000870184908701849086001201749C1F883
:1049E000A8011048007820F0800080300D49087040
:1049F00001201449087035E0ACE065E0EE140020B9
:104A00005D0000205E000020DE1400201000002069
:104A1000580000204A00002049000020010000202A
:104A200059000020570000205B00002000000020FB
:104A3000190000201A0000208481214200802142B8
:104A4000EB19002014180020EF1400203E00002075
:104A500025000020E01900209814002012180020E2
:104A60001B000020FE48007840B1FE48007820F08E
:104A70000100FC4908700020FB490870FB480078E1
:104A8000C0F3C00000B3FA48007820F01000F849E5
:104A900008700846007820F020000870084600786A
:104AA00020F040000870F348007820F02000F14921
:104AB00008700020F0490870F04908700120F049A2
:104AC00008700320EF490870E9480078C0F34010EF
:104AD00020B1E7480078C0F38010C0B9E4480078FE
:104AE0006FEA1010E249097860F30411E0480170A0
:104AF0000078C0F3001030B1E34890F83100401C5A
:104B0000DE49087016E00020DC49087012E0D84841
:104B1000007820F01000D64908700846007820F090
:104B2000200008700846007820F04000087000203F
:104B3000D24908700120D2490870D249087005E0B6
:104B40000120CF4908700320CE4908700020CF49CA
:104B5000C870F7E4CE48007805287DD1CD480078AC
:104B6000E8B3C4480078C009C8BBC0480078C0F3A7
:104B70008000A0BBC8480078C0F3401078BBC7488D
:104B8000007860B3BA48007800F0010038BBB5483F
:104B90000078C0F3400048B9B54800786FEAD010FB
:104BA000B349097860F3C711B1480170B048007883
:104BB000C00990B3AF48007820F040004030AD49C4
:104BC0000870B748007820F00400B549087008461E
:104BD000007820F0100008700846007800E029E016
:104BE00020F040000870A348007820F02000A14980
:104BF00008709F48007820F010009D490870084612
:104C0000007820F0200008700846007820F040006E
:104C1000087000209949087006E0FFE79548007881
:104C200020F040009349087001209549087095498B
:104C300008707DE197480078002874D18D4800788D
:104C4000C0090028F9D189480078C0F38000002805
:104C500069D19148007800E06EE1C0F3401000286F
:104C600061D18E48007800285DD08E48007818BB4E
:104C700001208C49087000208B4908708B4908700E
:104C80008B49086001208B49C1F8A801774800785A
:104C900020F0800080307549087001208649087036
:104CA0006F48007840B16F48007820F001006D49EE
:104CB000087000206C4908706E480078C0F38010BE
:104CC00090B37E48007878BB7D48007860BB7D4813
:104CD000007848BB7C48007830BB6648007820F0FC
:104CE00040006449087000207849087060480078E6
:104CF00020F080005E4908705C48007820F00800D1
:104D00005A4908700846007820F01000087058488A
:104D1000007820F00400564908700846007820F01A
:104D200008000870F8E0FDE0FFE7504800786FEAFF
:104D3000D0004E49097860F3C3014C4801700078F7
:104D4000C0F3C000F0B300206049087054480078F8
:104D500020F00400524908700846007820F0100046
:104D600008700846007820F040000870414800783C
:104D700020F020003F4908703D48007820F01000E6
:104D80003B4908700846007820F02000087008466B
:104D9000007820F04000087000203849087033483F
:104DA000007820F01000314908703148007820F078
:104DB00004002F4908700846007820F008000870A9
:104DC000284800E033E0007820F00400254908700E
:104DD00003203F4908702C4890F842003949087078
:104DE000294890F84300384908702D48007820F091
:104DF00001002B4908703748007820F00800354939
:104E000008702548007820F0800023490870244865
:104E1000007820F00200224908700020274908701D
:104E2000274908702C4908702C49087074E0114813
:104E3000007820F040000F4908700D48007820F0FD
:104E400004000B4908700846007820F0080008703C
:104E500006480078C0F3001000B141E051E00000C6
:104E6000EF1400205E0000203E00002057000020CC
:104E70005D000020590000201B00002025000020BC
:104E80004A00002049000020EB190020E019002012
:104E900098140020010000205B000020EE14002088
:104EA0005800002000000020190000201A000020F7
:104EB0008481214200802142141800200A18002019
:104EC0000B1800202A0000202B00002012180020C0
:104ED0003C0000205A00002016000020170000208F
:104EE000FE4890F84900FE490870FC4890F84C00D4
:104EF000FC490870FC48007820F00200801CFA4948
:104F00000870FA48007820F01000F8490870002076
:104F1000F7490870F74908700120F7490870F74908
:104F2000087005E00120F44908700320F349087077
:104F30000020F349C87079E3F248007809287DD150
:104F4000F148007800287AD0E8480078C0F3800063
:104F5000002874D1ED480078C0F3401000286ED1CD
:104F6000EB48007800286AD0DF48007800F00100A4
:104F7000002864D1E7480078C0F34000F0BBDB486C
:104F80000078C0F30010A8B1D44890F84900D44983
:104F90000870D24890F84C00D2490870D248007886
:104FA00020F00200801CD04908700020D049087011
:104FB000D0490870CD48007820F01000CB49087027
:104FC000C948007820F00400C7490870C748007835
:104FD00020F00800C5490870C348007820F0080098
:104FE000C1490870CC48007850BB0846007820F0D2
:104FF000800080300870C948007800E091E020F01F
:1050000080008030C54908705A20C3490870C448E0
:10501000007820F08000C2490870B04890F8400045
:10502000C0490870AD4890F84500C0EB0010800002
:10503000BD490860A94890F8440002E091E2CCE044
:105040000CE01E30B94908700320B9490870B14816
:10505000007820F00400AF49087062E0AE480078A4
:105060005A2828D1A048007820F0800080309E493E
:105070000870AA48007820F080008030A7490870A6
:105080004720A5490870A648007820F00400A449EC
:105090000870924890F84600C0EB00108000A549C7
:1050A00008600320A24908709A48007820F00400A4
:1050B0009849087035E000208D4908708D490870C6
:1050C0009D4908609D4908609D490860834890F8A3
:1050D0004B009C490870814890F84E00401D9A4949
:1050E00008708F48007820F0400040308C490870EC
:1050F0000846007820F0800008700846007820F00C
:10510000040008707848007820F080007649087024
:105110008248007820F080008049087000207E4995
:1051200008707E480078C009F0B38848007820F005
:105130000100864908708648007820F008008449FC
:1051400008707248007820F08000704908707F482D
:10515000007820F002007D4908700846007820F0B1
:10516000040008700846007820F010000870084617
:10517000007820F0400008705B48007820F01000B4
:10518000594908700846007820F020000870084649
:10519000007820F04000087000206E4908705F48D9
:1051A000007820F0200000E011E05C490870002049
:1051B000694908705948007820F040005749087044
:1051C0004948007820F0800080304749087001206D
:1051D0004949087049490870BFE14B4800780028E8
:1051E00079D142480078C0F380000028F8D14748C0
:1051F0000078C0F340100028F2D14548007800281C
:1052000069D05648007818BB012054490870002026
:1052100053490870534908705349086001205349A5
:10522000C1F8A8013148007820F0800080302F4973
:10523000087001204E4908704E48007840B135484A
:10524000007820F001003349087000204A490870B6
:1052500031480078F0BB2448007820F0800080308E
:10526000214908702D48007820F0800080302B49BB
:1052700008705A20284908702948007820F08000DA
:1052800027490870154890F84000264908701348CF
:1052900090F84500C0EB00108000234908600F48DB
:1052A00090F844001E3021490870032020490870FE
:1052B0001848007820F00400164908700B48007860
:1052C000C0F3001040B1054890F849000449087047
:1052D000024853E063E03AE1C4E00000EB1900202B
:1052E0002C0000202D0000205D0000205700002031
:1052F0000A1800200B1800204A0000204900002056
:10530000E019002098140020010000205B0000201C
:10531000EE1400205E0000201C0000205900002038
:105320005C0000202E000020300000202F00002014
:105330003C00002034000020040000200800002071
:105340000C000020390000203B0000205800002005
:105350005A000020250000201B0000200000002033
:10536000190000201A00002084812142008021427F
:1053700014180020EF1400203E00002090F84C008C
:10538000F7490870F748007820F00200801CF549C2
:1053900008700020F4490870F449087062E0F4488D
:1053A00000785A2828D1EF48007820F0800080301B
:1053B000EC490870EF48007820F080008030ED491B
:1053C00008704720EA490870EB48007820F0040094
:1053D000E9490870E94890F84600C0EB00108000E9
:1053E000E74908600320E7490870E748007820F0A3
:1053F0000400E549087035E00020DB490870DB490E
:105400000870E2490860E2490860E2490860DB4848
:1054100090F84B00E0490870D84890F84E00401DC5
:10542000DE490870D448007820F040004030D2496E
:1054300008700846007820F0800008700846007860
:1054400020F004000870C748007820F08000C549AB
:105450000870C848007820F08000C6490870002015
:10546000C3490870C3480078C009E0B3CC4800784D
:1054700020F00100CA490870CA48007820F00800EE
:10548000C8490870C848007820F08000C6490870F4
:10549000C348007820F00200C1490870084600782F
:1054A00020F0040008700846007820F01000087012
:1054B0000846007820F040000870AA48007820F0E4
:1054C0001000A84908700846007820F020000870F5
:1054D0000846007820F0400008700020B3490870AA
:1054E000A448007800E02CE020F02000A1490870DA
:1054F0000020AF4908709F48007820F040009D4987
:1055000008709848007820F0800080309549087035
:105510000120A8490870A848007820F00800A64992
:1055200008700846007820F0100008708D48007858
:1055300020F004008B4908700846007820F008002D
:10554000087001209D4908709D49087005E0012000
:105550009A49087003209A49087000209949C87038
:1055600064E0994800780F2860D198480078E0BB43
:1055700097480078C8BB90480078C0F38000A0BB73
:1055800089480078C0F3401078BB7C48C07A7928FD
:1055900046D19048007840B301208F490870774881
:1055A00090F85100401C8D490870744890F85200E2
:1055B0008B490870714890F853008A4908706F4809
:1055C00090F85400884908707B48007820F0040067
:1055D000001D79490870694890F8500083490870A7
:1055E000012083490870654800E019E090F86E00DA
:1055F00064214843654908604FF496706449086027
:1056000064206449086001206C4908706C49087086
:1056100000207849086001207749C1F8A80105E019
:1056200001206649087003206549087010BD10B557
:10563000724800780B2871D2DFE800F0060C1218CF
:105640001E61677A80868C0000206D490870FEF725
:1056500024F9DAE001206A490870FEF770F8D4E016
:10566000022067490870FDF76BFFCEE00320644914
:105670000870FDF7F7FEC8E0042061490870614832
:105680008078102836D2DFE800F035080B0E1114B0
:10569000171A1D202326292C2F32FDF7D5FC2CE0CC
:1056A000FDF7AAFB29E0FDF73EFA26E0FDF7E5F954
:1056B00023E0FDF78CF920E0FDF77BF81DE0FCF717
:1056C0007CFF1AE0FCF763FE17E0FCF7ACFC14E08B
:1056D000FCF757FB11E0FCF74DFA0EE0FCF765F91B
:1056E0000BE0FBF7FFFF08E0FBF7D8FD05E0FBF759
:1056F000E3FC02E0FBF7BEFC00BF00BF85E0052035
:105700003F490870FBF751FC7FE006203C490870D8
:105710003C48807818B1012807D103E074E0FAF71B
:10572000A0FE03E0FAF72AFE00E000BF00BF6CE035
:10573000072033490870FAF701FE66E00820304977
:105740000870FAF7E7FD60E009202D490870FAF7C4
:10575000CDFD5AE00A202A490870FAF75BFD54E0B3
:105760002D0000205D0000200A1800200B180020EA
:105770001C000020590000205C000020EB190020D4
:10578000340000203C0000205E00002004000020C7
:10579000080000200C000020390000203B00002001
:1057A000580000205A0000205B0000202500002047
:1057B0001B00002012180020570000204A00002083
:1057C00049000020E019002098140020010000206A
:1057D00000000020EE140020141800204F000020CC
:1057E0005000002051000020520000204E000020F8
:1057F0009D130020848121420080214285130020D6
:10580000861300208713002000BF00BF0020FC4942
:10581000087010BD10B5FB48007810B10020F949A0
:105820000870F948C07870B9F84A00210846FAF7BC
:10583000DAFCF74A0021084608F038FEF248C07842
:10584000401CF149C87010BD70B5034600200DE042
:105850000A25B1FBF5F605FB161404F13005ECB290
:105860001C540A25B1FBF5F1451CE8B29042EFDB70
:1058700070BD2DE9F0410546884616463246414640
:105880002846FFF7E1FF00240BE02F5DA819401E1A
:10589000001B00782855A819401E001B0770601CCB
:1058A000C4B206EBD671B4EB610FEEDBBDE8F0815C
:1058B0001CB5D448007810B10020D2490870D548F2
:1058C000007828B1D4A20021084608F0EFFD29E0B5
:1058D000D3480078012806D002280AD003280ED029
:1058E000042818D111E0CFA20021084608F0DEFDFF
:1058F00017E0CEA20021084608F0D8FD11E0CDA2A5
:105900000021084608F0D2FD0BE0CCA20021084699
:1059100008F0CCFD05E0CBA20021084608F0C6FD4A
:1059200000BF00BFB848C07870B9C84A0021084617
:10593000FAF759FCB64A0021084608F0B7FDB2480C
:10594000C078401CB049C870C1480068012808D11F
:10595000C0A21C21002008F0A9FD0020BE4908605B
:1059600007E0BEA21C21002008F0A0FD0120BA49DA
:105970000860BB480078002866D1A6480078002857
:10598000FAD1B8A20321084608F090FDB7A20A2177
:10599000032008F08BFDB7A21021032008F086FD3C
:1059A000B6A21721032008F081FDB648007828B977
:1059B000B5A21C21012008F079FD04E0B3A21C214E
:1059C000012008F073FDB2480078E0B391480078F8
:1059D000C8BB0020AE490870AE48007864280CDDD2
:1059E000AC4800786438AB490870084600786428F1
:1059F00003DD08460078643808700322A548017862
:105A00006846FFF736FF9DF80000302802D12020BD
:105A10008DF800009DF80100302802D120208DF87B
:105A2000010003236A460821022008F03EFE0422FA
:105A3000994801886846FFF71CFF9DF80000302850
:105A400005D1202001E008E0BCE08DF8000004232F
:105A50006A461721022008F028FE81480078B0B17C
:105A60006C48007898B902228C4801786846FFF7A4
:105A700000FF9DF80000302802D120208DF80000A2
:105A800002236A461721012008F00FFE13E0844824
:105A900090F8711002226846FFF7EBFE9DF80000B7
:105AA000302802D120208DF8000002236A461721F9
:105AB000012008F0FAFD6A48007848B1554800789E
:105AC00030B90322774801786846FFF7D2FE0BE031
:105AD000734890F8581003226846FFF7CAFE7048D2
